{
  "contractName": "Deposit",
  "abi": [
    {
      "inputs": [
        {
          "internalType": "address",
          "name": "",
          "type": "address"
        }
      ],
      "name": "balances",
      "outputs": [
        {
          "internalType": "uint256",
          "name": "",
          "type": "uint256"
        }
      ],
      "stateMutability": "view",
      "type": "function",
      "constant": true
    },
    {
      "stateMutability": "payable",
      "type": "receive",
      "payable": true
    },
    {
      "inputs": [
        {
          "internalType": "uint256",
          "name": "amountIn",
          "type": "uint256"
        }
      ],
      "name": "receiveDeposit",
      "outputs": [
        {
          "internalType": "bool",
          "name": "",
          "type": "bool"
        }
      ],
      "stateMutability": "payable",
      "type": "function",
      "payable": true
    },
    {
      "inputs": [
        {
          "internalType": "address",
          "name": "_to",
          "type": "address"
        }
      ],
      "name": "getDepositBalance",
      "outputs": [
        {
          "internalType": "uint256",
          "name": "",
          "type": "uint256"
        }
      ],
      "stateMutability": "view",
      "type": "function",
      "constant": true
    },
    {
      "inputs": [
        {
          "internalType": "uint256",
          "name": "amountOut",
          "type": "uint256"
        }
      ],
      "name": "returnDeposit",
      "outputs": [
        {
          "internalType": "bool",
          "name": "",
          "type": "bool"
        }
      ],
      "stateMutability": "nonpayable",
      "type": "function"
    },
    {
      "inputs": [],
      "name": "getAddress",
      "outputs": [
        {
          "internalType": "address",
          "name": "",
          "type": "address"
        }
      ],
      "stateMutability": "view",
      "type": "function",
      "constant": true
    },
    {
      "inputs": [
        {
          "internalType": "address",
          "name": "to",
          "type": "address"
        },
        {
          "internalType": "uint256",
          "name": "amount",
          "type": "uint256"
        }
      ],
      "name": "transfer",
      "outputs": [
        {
          "internalType": "bool",
          "name": "",
          "type": "bool"
        }
      ],
      "stateMutability": "nonpayable",
      "type": "function"
    }
  ],
  "bytecode": "0x608060405260016000806101000a81548160ff02191690831515021790555034801561002a57600080fd5b5061058d8061003a6000396000f3fe6080604052600436106100595760003560e01c806318b683fb1461006557806327e235e3146100b857806338cc48311461011d578063767b71bd14610174578063a9059cbb146101ba578063ed05ae781461022d57610060565b3661006057005b600080fd5b34801561007157600080fd5b5061009e6004803603602081101561008857600080fd5b8101908080359060200190929190505050610292565b604051808215151515815260200191505060405180910390f35b3480156100c457600080fd5b50610107600480360360208110156100db57600080fd5b81019080803573ffffffffffffffffffffffffffffffffffffffff1690602001909291905050506103fd565b6040518082815260200191505060405180910390f35b34801561012957600080fd5b50610132610415565b604051808273ffffffffffffffffffffffffffffffffffffffff1673ffffffffffffffffffffffffffffffffffffffff16815260200191505060405180910390f35b6101a06004803603602081101561018a57600080fd5b810190808035906020019092919050505061041d565b604051808215151515815260200191505060405180910390f35b3480156101c657600080fd5b50610213600480360360408110156101dd57600080fd5b81019080803573ffffffffffffffffffffffffffffffffffffffff1690602001909291908035906020019092919050505061046c565b604051808215151515815260200191505060405180910390f35b34801561023957600080fd5b5061027c6004803603602081101561025057600080fd5b81019080803573ffffffffffffffffffffffffffffffffffffffff16906020019092919050505061050e565b6040518082815260200191505060405180910390f35b600080600160003373ffffffffffffffffffffffffffffffffffffffff1673ffffffffffffffffffffffffffffffffffffffff168152602001908152602001600020541415610349576040517f08c379a000000000000000000000000000000000000000000000000000000000815260040180806020018281038252600f8152602001807f42616c616e6365206973207a65726f000000000000000000000000000000000081525060200191505060405180910390fd5b3373ffffffffffffffffffffffffffffffffffffffff168260405180600001905060006040518083038185875af1925050503d80600081146103a7576040519150601f19603f3d011682016040523d82523d6000602084013e6103ac565b606091505b5050506000600160003373ffffffffffffffffffffffffffffffffffffffff1673ffffffffffffffffffffffffffffffffffffffff1681526020019081526020016000208190555060019050919050565b60016020528060005260406000206000915090505481565b600030905090565b600081600160003373ffffffffffffffffffffffffffffffffffffffff1673ffffffffffffffffffffffffffffffffffffffff1681526020019081526020016000208190555060019050919050565b600081600160003373ffffffffffffffffffffffffffffffffffffffff1673ffffffffffffffffffffffffffffffffffffffff1681526020019081526020016000206000828254039250508190555081600160008573ffffffffffffffffffffffffffffffffffffffff1673ffffffffffffffffffffffffffffffffffffffff1681526020019081526020016000206000828254019250508190555092915050565b6000600160008373ffffffffffffffffffffffffffffffffffffffff1673ffffffffffffffffffffffffffffffffffffffff16815260200190815260200160002054905091905056fea26469706673582212207a341cd6f4e8f4c2c5a631e58361b5d0fba3092303fd57c942a157d8a4e5b31764736f6c63430006060033",
  "immutableReferences": {},
  "source": "// SPDX-License-Identifier: MIT\npragma solidity >=0.6.6;\n\ncontract Deposit{\n\nbool test = true;\nmapping(address => uint) public balances;\n\n\n\n//Create deposit into a sort of fake token.\nfunction receiveDeposit(uint256 amountIn) public payable  returns (bool){\n    // Add some \"Tokens to the senders address\n    balances[msg.sender] = amountIn;\n    //balances[msg.sender] -= amountIn;\n    return true;\n}\n\nfunction getDepositBalance(address _to) public view returns(uint){\n    return balances[_to];\n}\n\n\n// The problematic function\nfunction returnDeposit(uint256 amountOut) external returns (bool) {\n    // Going to delibrately create a reentracy bug here\n    //send deposit  amountOut back\n    // this is the right test needs to check the msg.sender has positive balance\n    //balances[msg.sender] > 0\n    // There are all sorts of issues about overflow and what if its exactly zero\n    // This is just to illustrate its not meant to be perfect\n    // really scares me putting an If with an exact value also no check on what will happen if the Type is wrong, but this just to illustrate how it works.\n    if (balances[msg.sender] == 0) revert(\"Balance is zero\");\n        // First thing to get right is not to use transfer but to use call which sends the entire GAS stipend\n    msg.sender.call.value(amountOut)(\"\");\n    // before updating a global varible whether this is acceptable\n    //update balances too late\n    // I am not using safe math so its wrapping around and instead of getting zero its getting a massive number, so instaed of \n    //balances[msg.sender] -= amountOut;\n    //I will use \n    balances[msg.sender] = 0;\n   // test = false;\n   return true;\n    \n}\n// Helper function to check address of this contract\nfunction getAddress() public view returns (address ){\n        return address(this);\n    }\n    \n    //Its this function that allows the hacker to repeat the hack\n    //(s)he creates two contracts, and sends the \"Tokens\" from Address A to Address B\n    // Address A attacks the Deposit contract first the fallback function of A calls transfer 258 Tokens first\n    // then it calls withDraw, this will resolve with Contract A's balance being set to 0\n    // then contract B which now has 258 extra Tokens, attacks its fallback calls \n    // transfer before it calls withdraw \n    // The switching between the two attack contracts is what drains the Deposit address.\n\n    function transfer(address to, uint256 amount) public returns (bool) {\n        //decrease msg.sender balance\n    balances[msg.sender] -= amount;\n    // Increase the to balance\n    balances[to] += amount;\n\n    }\n\n\nreceive() external payable {\n    // Nothing to do\n  }\n}\n\n",
  "sourcePath": "/Users/Pookie/Documents/Work/DAOHack/contracts/deposit.sol",
  "compiler": {
    "name": "solc",
    "version": "0.6.6+commit.6c089d02.Emscripten.clang"
  },
  "schemaVersion": "3.3.1",
  "updatedAt": "2020-12-16T16:49:43.507Z",
  "networkType": "ethereum",
  "devdoc": {
    "methods": {}
  },
  "userdoc": {
    "methods": {}
  }
}